:100000000C942A000C9411010C943C000C943C00BC
:100010000C943C000C943C000C943C000C943C0070
:100020000C943C000C943C000C943C000C943C0060
:100030000C943C000C943C000C943C000C943C0050
:100040000C943C000C943C000C943C000C943C0040
:100050000C943C0011241FBECFE5D8E0DEBFCDBF1D
:1000600020E0A0E6B0E001C01D92A336B207E1F7A0
:100070000E9497010C9436060C94000061E480E025
:100080000E94250161E481E00E94250161E482E093
:100090000E94250162E480E00E94250162E481E083
:1000A0000E94250162E482E00E94250164E482E06E
:1000B0000E9421010E94C10382E00E949C030895D6
:1000C00062E480E00E94290180916000882321F091
:1000D000813009F445C0F8CF80916200811114C0CD
:1000E000E1E6F0E0108281E0818361E480E00E943B
:1000F000290160E070E080EA90E40E94C40361E4BA
:1001000080E00E942D01E0CF8130A1F48091610058
:10011000811104C082E08093620004C0823011F437
:100120001092620081E08093610045E061E40E94EA
:100130003101CACFC1E6D0E012E0198361E482E068
:100140000E94290160E070E080EA90E40E94C4030C
:1001500061E482E00E942D01188381E08983B4CF9D
:1001600080916100811112C062E40E942D0161E45E
:1001700080E00E94290162E482E00E94290160E09F
:1001800070E080EA90E40E94C40320C08150823075
:10019000E8F462E480E00E94290105E022E441E005
:1001A00061E481E00E945D0162E480E00E942D0133
:1001B00061E480E00E94290162E482E00E9429015A
:1001C00060E070E080EA90E40E94C40361E480E0B3
:1001D0000E942D0162E482E00E942D0105E022E4EC
:1001E00041E061E481E00E945D0161E482E00E94FF
:1001F000290162E480E00E94290160E070E080EA69
:1002000090E40E94C40361E482E00E942D01E1E6D3
:10021000F0E082E0808381E0818310926000789436
:1002200053CF1F920F920FB60F9211248F9381E03C
:1002300080936000F8948F910F900FBE0F901F90E5
:10024000189540E00E949C01089541E00E949C01A5
:10025000089541E00E943802089540E00E9438026B
:100260000895FF920F931F93CF93DF93082F162FBC
:10027000F42EC0E0D0E016C041E0612F802F0E9434
:10028000380260E070E080E09FE30E94C403612FC9
:10029000802F0E94D40260E070E080E09FE30E9423
:1002A000C40321968F2D90E0C817D9072CF3DF9156
:1002B000CF911F910F91FF900895DF92EF92FF92DF
:1002C0000F931F93CF93DF93D82EE62EF42E122F89
:1002D000C0E0D0E01FC041E06E2D8D2D0E9438029D
:1002E00041E0612F8F2D0E94380260E070E080E0D5
:1002F0009FE30E94C4036E2D8D2D0E94D402612FB6
:100300008F2D0E94D40260E070E080E09FE30E94A5
:10031000C4032196802F90E0C817D907E4F2DF913B
:10032000CF911F910F91FF90EF90DF9008950E9461
:100330003E000E946000FDCF623469F118F4613420
:1003400041F08DC0633409F448C0643409F466C0D8
:1003500086C041110FC04AB321E030E0B90102C0AC
:10036000660F771F8A95E2F7CB01809584238ABBBD
:1003700080E00895413009F073C04AB321E030E0D5
:10038000B90102C0660F771F8A95E2F7CB01842B73
:100390008ABB80E0089541110FC047B321E030E0EF
:1003A000B90102C0660F771F8A95E2F7CB018095ED
:1003B000842387BB80E00895413009F053C047B3E0
:1003C00021E030E0B90102C0660F771F8A95E2F79D
:1003D000CB01842B87BB80E0089541110FC044B34B
:1003E00021E030E0B90102C0660F771F8A95E2F77D
:1003F000CB018095842384BB80E008954130A1F532
:1004000044B321E030E0B90102C0660F771F8A953E
:10041000E2F7CB01842B84BB80E0089541110FC02B
:1004200041B321E030E0B90102C0660F771F8A9521
:10043000E2F7CB018095842381BB80E008954130B1
:10044000A9F441B321E030E0B90102C0660F771F83
:100450008A95E2F7CB01842B81BB80E00895089553
:1004600081E0089581E0089581E0089581E0089594
:10047000623469F118F4613441F08DC0633409F4D9
:1004800048C0643409F466C086C041110FC04BB344
:1004900021E030E0B90102C0660F771F8A95E2F7CC
:1004A000CB01809584238BBB80E00895413009F017
:1004B00073C04BB321E030E0B90102C0660F771F73
:1004C0008A95E2F7CB01842B8BBB80E00895411124
:1004D0000FC048B321E030E0B90102C0660F771FBA
:1004E0008A95E2F7CB018095842388BB80E008954C
:1004F000413009F053C048B321E030E0B90102C0F7
:10050000660F771F8A95E2F7CB01842B88BB80E0CA
:10051000089541110FC045B321E030E0B90102C098
:10052000660F771F8A95E2F7CB018095842385BB00
:1005300080E008954130A1F545B321E030E0B901F4
:1005400002C0660F771F8A95E2F7CB01842B85BB2B
:1005500080E0089541110FC042B321E030E0B901BD
:1005600002C0660F771F8A95E2F7CB01809584233E
:1005700082BB80E008954130A9F442B321E030E02D
:10058000B90102C0660F771F8A95E2F7CB01842B71
:1005900082BB80E00895089582E0089582E0089586
:1005A00082E0089582E008956234C1F118F4613464
:1005B00041F0B9C0633409F45EC0643409F487C003
:1005C000B2C029B341E050E0082E02C0440F551FCD
:1005D0000A94E2F730E024233523082E02C0359533
:1005E00027950A94E2F7232B29F48BB3482B4BBBB6
:1005F00080E0089529B330E024233523B90102C0F7
:10060000759567958A95E2F76130710509F08CC0A0
:100610008BB3409548234BBB80E0089526B341E05F
:1006200050E0082E02C0440F551F0A94E2F730E054
:1006300024233523082E02C0359527950A94E2F726
:10064000232B29F488B3482B48BB80E0089526B3B8
:1006500030E024233523B90102C0759567958A954A
:10066000E2F76130710509F061C088B34095482315
:1006700048BB80E0089523B341E050E0082E02C05B
:10068000440F551F0A94E2F730E024233523082E47
:1006900002C0359527950A94E2F7232B29F485B3F8
:1006A000482B45BB80E0089523B330E02423352355
:1006B000B90102C0759567958A95E2F761307105B9
:1006C000B9F585B34095482345BB80E0089520B334
:1006D00041E050E0082E02C0440F551F0A94E2F793
:1006E00030E024233523082E02C0359527950A943F
:1006F000E2F7232B29F482B3482B42BB80E0089514
:1007000020B330E024233523B90102C075956795E5
:100710008A95E2F76130710569F482B34095482308
:1007200042BB80E00895089584E0089584E0089530
:1007300084E0089584E008957894813069F028F089
:10074000823071F0833081F01AC085B78E7F85BF0B
:1007500085B78D7F85BF0EC085B7816085BF0AC014
:1007600085B7826085BF06C085B7816085BF85B7C4
:10077000826085BF8BB780648BBF80E0089581E085
:10078000089513BE12BE08958F929F92AF92BF92AA
:10079000CF92DF92EF92FF92CF93DF934B015C01F8
:1007A0002DEB37E346E85EE30E949D040E94860439
:1007B0006B017C012DEB37E346E85AE3C501B40138
:1007C0000E949D04A70196010E949D049B01AC011B
:1007D00060E070E080E893E40E9419040E948604BF
:1007E0000E940F0562BF83B7856083BFC0E0D0E081
:1007F00007C008B600FEFDCF88B7816088BF21968C
:10080000BE0180E090E00E943E059B01AC01C70163
:10081000B6010E940D06181664F312BEDF91CF9147
:10082000FF90EF90DF90CF90BF90AF909F908F9010
:1008300008955058BB27AA270E9431040C94BB0589
:100840000E94AD0538F00E94B40520F039F49F3FB6
:1008500019F426F40C94AA050EF4E095E7FB0C9429
:100860007B05E92F0E94CC0558F3BA17620773077E
:100870008407950720F079F4A6F50C9406060EF48B
:10088000E0950B2EBA2FA02D0B01B90190010C01A0
:10089000CA01A0011124FF27591B99F0593F50F4B8
:1008A000503E68F11A16F040A22F232F342F442710
:1008B000585FF3CF469537952795A795F040539508
:1008C000C9F77EF41F16BA0B620B730B840BBAF0D8
:1008D0009150A1F0FF0FBB1F661F771F881FC2F743
:1008E0000EC0BA0F621F731F841F48F48795779557
:1008F0006795B795F7959E3F08F0B0CF9395880F11
:1009000008F09927EE0F9795879508950E94EE05B8
:1009100090F09F3748F4911116F40C94070660E0AC
:1009200070E080E89FE3089526F01B16611D711D9D
:10093000811D0C9481050C949C050E94B1040C94BB
:10094000BB050E94B40558F00E94AD0540F029F4A3
:100950005F3F29F00C947B0551110C9407060C9411
:10096000AA050E94CC0568F39923B1F3552391F3AE
:10097000951B550BBB27AA2762177307840738F00E
:100980009F5F5F4F220F331F441FAA1FA9F335D06B
:100990000E2E3AF0E0E832D091505040E695001C1F
:1009A000CAF72BD0FE2F29D0660F771F881FBB1FD9
:1009B000261737074807AB07B0E809F0BB0B802DB7
:1009C000BF01FF2793585F4F3AF09E3F510578F0E3
:1009D0000C947B050C9407065F3FE4F3983ED4F338
:1009E000869577956795B795F7959F5FC9F7880FB7
:1009F000911D9695879597F90895E1E0660F771F09
:100A0000881FBB1F621773078407BA0720F0621B99
:100A1000730B840BBA0BEE1F88F7E09508950E94C4
:100A2000D40588F09F5798F0B92F9927B751B0F0A7
:100A3000E1F0660F771F881F991F1AF0BA95C9F762
:100A400014C0B13091F00E940606B1E008950C94F4
:100A50000606672F782F8827B85F39F0B93FCCF3A7
:100A6000869577956795B395D9F73EF490958095DF
:100A7000709561957F4F8F4F9F4F0895E89409C0FF
:100A800097FB3EF490958095709561957F4F8F4FC1
:100A90009F4F9923A9F0F92F96E9BB279395F695D7
:100AA000879577956795B795F111F8CFFAF4BB0F55
:100AB00011F460FF1BC06F5F7F4F8F4F9F4F16C0B9
:100AC000882311F096E911C0772321F09EE8872F43
:100AD000762F05C0662371F096E8862F70E060E0FF
:100AE0002AF09A95660F771F881FDAF7880F969578
:100AF000879597F9089597F99F6780E870E060E01F
:100B00000895882371F4772321F09850872B762F4E
:100B100007C0662311F499270DC09051862B70E011
:100B200060E02AF09A95660F771F881FDAF7880F22
:100B30009695879597F908959F3F31F0915020F44D
:100B4000879577956795B795880F911D96958795A9
:100B500097F908959FEF80EC089500240A941616E3
:100B6000170618060906089500240A94121613069B
:100B7000140605060895092E0394000C11F4882329
:100B800052F0BB0F40F4BF2B11F460FF04C06F5F45
:100B90007F4F8F4F9F4F089557FD9058440F551F1B
:100BA00059F05F3F71F04795880F97FB991F61F0EF
:100BB0009F3F79F087950895121613061406551F66
:100BC000F2CF4695F1DF08C0161617061806991FD2
:100BD000F1CF869571056105089408950E94D405AA
:100BE000A0F0BEE7B91788F4BB279F3860F416164B
:100BF000B11D672F782F8827985FF7CF8695779557
:100C00006795B11D93959639C8F30895E894BB276D
:100C100066277727CB0197F908950E94120608F4FA
:100C20008FEF0895990F0008550FAA0BE0E8FEEF2B
:100C300016161706E807F907C0F012161306E407A0
:100C4000F50798F0621B730B840B950B39F40A2699
:100C500061F0232B242B252B21F408950A2609F477
:100C6000A140A6958FEF811D811D0895F894FFCFB7
:00000001FF
